{
  "contractName": "SimpleCounter",
  "abi": [
    {
      "inputs": [],
      "stateMutability": "nonpayable",
      "type": "constructor"
    },
    {
      "inputs": [],
      "name": "count",
      "outputs": [
        {
          "internalType": "uint256",
          "name": "",
          "type": "uint256"
        }
      ],
      "stateMutability": "view",
      "type": "function"
    },
    {
      "inputs": [],
      "name": "increment",
      "outputs": [],
      "stateMutability": "nonpayable",
      "type": "function"
    },
    {
      "inputs": [],
      "name": "decrement",
      "outputs": [],
      "stateMutability": "nonpayable",
      "type": "function"
    },
    {
      "inputs": [],
      "name": "getCount",
      "outputs": [
        {
          "internalType": "uint256",
          "name": "",
          "type": "uint256"
        }
      ],
      "stateMutability": "view",
      "type": "function"
    }
  ],
  "bytecode": "0x608060405234801561000f575f80fd5b505f8081905550610294806100235f395ff3fe608060405234801561000f575f80fd5b506004361061004a575f3560e01c806306661abd1461004e5780632baeceb71461006c578063a87d942c14610076578063d09de08a14610094575b5f80fd5b61005661009e565b604051610063919061013a565b60405180910390f35b6100746100a3565b005b61007e610100565b60405161008b919061013a565b60405180910390f35b61009c610108565b005b5f5481565b5f8054116100e6576040517f08c379a00000000000000000000000000000000000000000000000000000000081526004016100dd906101ad565b60405180910390fd5b60015f808282546100f791906101f8565b92505081905550565b5f8054905090565b60015f80828254610119919061022b565b92505081905550565b5f819050919050565b61013481610122565b82525050565b5f60208201905061014d5f83018461012b565b92915050565b5f82825260208201905092915050565b7f436f756e7465722063616e6e6f74206265206e656761746976650000000000005f82015250565b5f610197601a83610153565b91506101a282610163565b602082019050919050565b5f6020820190508181035f8301526101c48161018b565b9050919050565b7f4e487b71000000000000000000000000000000000000000000000000000000005f52601160045260245ffd5b5f61020282610122565b915061020d83610122565b9250828203905081811115610225576102246101cb565b5b92915050565b5f61023582610122565b915061024083610122565b9250828201905080821115610258576102576101cb565b5b9291505056fea26469706673582212208eab7aeab798b050e2e3d5058e57992b13a10341f538e65811ac8d88748d6b0064736f6c63430008150033",
  "immutableReferences": {},
  "source": "// SPDX-License-Identifier: MIT\r\npragma solidity ^0.8.0;\r\n\r\ncontract SimpleCounter {\r\n    uint256 public count;\r\n\r\n    // Constructor to initialize the counter\r\n    constructor() {\r\n        count = 0; // Start count at 0\r\n    }\r\n\r\n    // Function to increment the counter\r\n    function increment() public {\r\n        count += 1;\r\n    }\r\n\r\n    // Function to decrement the counter\r\n    function decrement() public {\r\n        require(count > 0, \"Counter cannot be negative\"); // Prevent negative count\r\n        count -= 1;\r\n    }\r\n\r\n    // Function to get the current count\r\n    function getCount() public view returns (uint256) {\r\n        return count;\r\n    }\r\n}\r\n",
  "sourcePath": "C:\\Users\\Smart Lenovo\\TicketingSystem\\contracts\\Ticketing.sol",
  "compiler": {
    "name": "solc",
    "version": "0.8.21+commit.d9974bed.Emscripten.clang"
  },
  "schemaVersion": "3.4.16",
  "updatedAt": "2024-11-05T07:45:21.491Z",
  "devdoc": {
    "kind": "dev",
    "methods": {},
    "version": 1
  },
  "userdoc": {
    "kind": "user",
    "methods": {},
    "version": 1
  }
}