{
  "contractName": "Ticketing",
  "abi": [
    {
      "inputs": [
        {
          "internalType": "address",
          "name": "",
          "type": "address"
        },
        {
          "internalType": "uint256",
          "name": "",
          "type": "uint256"
        }
      ],
      "name": "purchasedTickets",
      "outputs": [
        {
          "internalType": "uint256",
          "name": "",
          "type": "uint256"
        }
      ],
      "stateMutability": "view",
      "type": "function",
      "constant": true
    },
    {
      "inputs": [],
      "name": "ticketCount",
      "outputs": [
        {
          "internalType": "uint256",
          "name": "",
          "type": "uint256"
        }
      ],
      "stateMutability": "view",
      "type": "function",
      "constant": true
    },
    {
      "inputs": [
        {
          "internalType": "uint256",
          "name": "",
          "type": "uint256"
        }
      ],
      "name": "tickets",
      "outputs": [
        {
          "internalType": "uint256",
          "name": "id",
          "type": "uint256"
        },
        {
          "internalType": "string",
          "name": "eventName",
          "type": "string"
        },
        {
          "internalType": "uint256",
          "name": "price",
          "type": "uint256"
        },
        {
          "internalType": "address",
          "name": "owner",
          "type": "address"
        },
        {
          "internalType": "bool",
          "name": "isAvailable",
          "type": "bool"
        }
      ],
      "stateMutability": "view",
      "type": "function",
      "constant": true
    },
    {
      "inputs": [
        {
          "internalType": "string",
          "name": "_eventName",
          "type": "string"
        },
        {
          "internalType": "uint256",
          "name": "_price",
          "type": "uint256"
        },
        {
          "internalType": "uint256",
          "name": "_availableCount",
          "type": "uint256"
        }
      ],
      "name": "createTicket",
      "outputs": [],
      "stateMutability": "nonpayable",
      "type": "function"
    },
    {
      "inputs": [
        {
          "internalType": "uint256",
          "name": "_ticketId",
          "type": "uint256"
        }
      ],
      "name": "buyTicket",
      "outputs": [],
      "stateMutability": "payable",
      "type": "function",
      "payable": true
    },
    {
      "inputs": [
        {
          "internalType": "address",
          "name": "_user",
          "type": "address"
        }
      ],
      "name": "getPurchasedTickets",
      "outputs": [
        {
          "internalType": "uint256[]",
          "name": "",
          "type": "uint256[]"
        }
      ],
      "stateMutability": "view",
      "type": "function",
      "constant": true
    }
  ],
  "bytecode": "0x608060405234801561001057600080fd5b50610d39806100206000396000f3fe6080604052600436106100555760003560e01c80634aaf86521461005a57806350b447121461009757806367dd74ca146100d857806367fec8e4146100f4578063cfbd900f1461011d578063d01f779114610148575b600080fd5b34801561006657600080fd5b50610081600480360381019061007c9190610745565b610185565b60405161008e91906109a5565b60405180910390f35b3480156100a357600080fd5b506100be60048036038101906100b99190610811565b61021c565b6040516100cf959493929190610a22565b60405180910390f35b6100f260048036038101906100ed9190610811565b610307565b005b34801561010057600080fd5b5061011b600480360381019061011691906107aa565b6104ac565b005b34801561012957600080fd5b506101326105d9565b60405161013f9190610a07565b60405180910390f35b34801561015457600080fd5b5061016f600480360381019061016a919061076e565b6105df565b60405161017c9190610a07565b60405180910390f35b6060600160008373ffffffffffffffffffffffffffffffffffffffff1673ffffffffffffffffffffffffffffffffffffffff16815260200190815260200160002080548060200260200160405190810160405280929190818152602001828054801561021057602002820191906000526020600020905b8154815260200190600101908083116101fc575b50505050509050919050565b600060205280600052604060002060009150905080600001549080600101805461024590610bbc565b80601f016020809104026020016040519081016040528092919081815260200182805461027190610bbc565b80156102be5780601f10610293576101008083540402835291602001916102be565b820191906000526020600020905b8154815290600101906020018083116102a157829003601f168201915b5050505050908060020154908060030160009054906101000a900473ffffffffffffffffffffffffffffffffffffffff16908060030160149054906101000a900460ff16905085565b60008082815260200190815260200160002060030160149054906101000a900460ff16610369576040517f08c379a0000000000000000000000000000000000000000000000000000000008152600401610360906109c7565b60405180910390fd5b600080828152602001908152602001600020600201543410156103c1576040517f08c379a00000000000000000000000000000000000000000000000000000000081526004016103b8906109e7565b60405180910390fd5b600080600083815260200190815260200160002060030160146101000a81548160ff0219169083151502179055503360008083815260200190815260200160002060030160006101000a81548173ffffffffffffffffffffffffffffffffffffffff021916908373ffffffffffffffffffffffffffffffffffffffff160217905550600160003373ffffffffffffffffffffffffffffffffffffffff1673ffffffffffffffffffffffffffffffffffffffff16815260200190815260200160002081908060018154018082558091505060019003906000526020600020016000909190919091505550565b60005b818110156105d357600260008154809291906104ca90610bee565b91905055506040518060a0016040528060025481526020018581526020018481526020013373ffffffffffffffffffffffffffffffffffffffff16815260200160011515815250600080600254815260200190815260200160002060008201518160000155602082015181600101908051906020019061054b929190610610565b506040820151816002015560608201518160030160006101000a81548173ffffffffffffffffffffffffffffffffffffffff021916908373ffffffffffffffffffffffffffffffffffffffff16021790555060808201518160030160146101000a81548160ff02191690831515021790555090505080806105cb90610bee565b9150506104af565b50505050565b60025481565b600160205281600052604060002081815481106105fb57600080fd5b90600052602060002001600091509150505481565b82805461061c90610bbc565b90600052602060002090601f01602090048101928261063e5760008555610685565b82601f1061065757805160ff1916838001178555610685565b82800160010185558215610685579182015b82811115610684578251825591602001919060010190610669565b5b5090506106929190610696565b5090565b5b808211156106af576000816000905550600101610697565b5090565b60006106c66106c184610aad565b610a7c565b9050828152602081018484840111156106de57600080fd5b6106e9848285610b7a565b509392505050565b60008135905061070081610cd5565b92915050565b600082601f83011261071757600080fd5b81356107278482602086016106b3565b91505092915050565b60008135905061073f81610cec565b92915050565b60006020828403121561075757600080fd5b6000610765848285016106f1565b91505092915050565b6000806040838503121561078157600080fd5b600061078f858286016106f1565b92505060206107a085828601610730565b9150509250929050565b6000806000606084860312156107bf57600080fd5b600084013567ffffffffffffffff8111156107d957600080fd5b6107e586828701610706565b93505060206107f686828701610730565b925050604061080786828701610730565b9150509250925092565b60006020828403121561082357600080fd5b600061083184828501610730565b91505092915050565b60006108468383610987565b60208301905092915050565b61085b81610b32565b82525050565b600061086c82610aed565b6108768185610b10565b935061088183610add565b8060005b838110156108b2578151610899888261083a565b97506108a483610b03565b925050600181019050610885565b5085935050505092915050565b6108c881610b44565b82525050565b60006108d982610af8565b6108e38185610b21565b93506108f3818560208601610b89565b6108fc81610cc4565b840191505092915050565b6000610914601e83610b21565b91507f4c652062696c6c6574206e276573742070617320646973706f6e69626c6500006000830152602082019050919050565b6000610954601383610b21565b91507f4e6f7420656e6f756768204554482073656e74000000000000000000000000006000830152602082019050919050565b61099081610b70565b82525050565b61099f81610b70565b82525050565b600060208201905081810360008301526109bf8184610861565b905092915050565b600060208201905081810360008301526109e081610907565b9050919050565b60006020820190508181036000830152610a0081610947565b9050919050565b6000602082019050610a1c6000830184610996565b92915050565b600060a082019050610a376000830188610996565b8181036020830152610a4981876108ce565b9050610a586040830186610996565b610a656060830185610852565b610a7260808301846108bf565b9695505050505050565b6000604051905081810181811067ffffffffffffffff82111715610aa357610aa2610c95565b5b8060405250919050565b600067ffffffffffffffff821115610ac857610ac7610c95565b5b601f19601f8301169050602081019050919050565b6000819050602082019050919050565b600081519050919050565b600081519050919050565b6000602082019050919050565b600082825260208201905092915050565b600082825260208201905092915050565b6000610b3d82610b50565b9050919050565b60008115159050919050565b600073ffffffffffffffffffffffffffffffffffffffff82169050919050565b6000819050919050565b82818337600083830152505050565b60005b83811015610ba7578082015181840152602081019050610b8c565b83811115610bb6576000848401525b50505050565b60006002820490506001821680610bd457607f821691505b60208210811415610be857610be7610c66565b5b50919050565b6000610bf982610b70565b91507fffffffffffffffffffffffffffffffffffffffffffffffffffffffffffffffff821415610c2c57610c2b610c37565b5b600182019050919050565b7f4e487b7100000000000000000000000000000000000000000000000000000000600052601160045260246000fd5b7f4e487b7100000000000000000000000000000000000000000000000000000000600052602260045260246000fd5b7f4e487b7100000000000000000000000000000000000000000000000000000000600052604160045260246000fd5b6000601f19601f8301169050919050565b610cde81610b32565b8114610ce957600080fd5b50565b610cf581610b70565b8114610d0057600080fd5b5056fea26469706673582212204e02c51c921841e094d9452f89e6c1ded379a7d04f70018d50930c918c51e43e64736f6c63430008000033",
  "immutableReferences": {},
  "source": "// SPDX-License-Identifier: MIT\r\npragma solidity ^0.8.0;\r\n\r\ncontract Ticketing {\r\n    struct Ticket {\r\n        uint id;\r\n        string eventName;\r\n        uint price;\r\n        address owner;\r\n        bool isAvailable;\r\n    }\r\n\r\n    mapping(uint => Ticket) public tickets;\r\n    mapping(address => uint[]) public purchasedTickets;\r\n    uint public ticketCount;\r\n\r\n    function createTicket(string memory _eventName, uint _price, uint _availableCount) public {\r\n        for (uint i = 0; i < _availableCount; i++) {\r\n            ticketCount++;\r\n            tickets[ticketCount] = Ticket(ticketCount, _eventName, _price, msg.sender, true);\r\n        }\r\n    }\r\n\r\n    function buyTicket(uint _ticketId) public payable {\r\n        require(tickets[_ticketId].isAvailable, \"Le billet n'est pas disponible\");\r\n        require(msg.value >= tickets[_ticketId].price, \"Not enough ETH sent\");\r\n\r\n        tickets[_ticketId].isAvailable = false;\r\n        tickets[_ticketId].owner = msg.sender;\r\n        purchasedTickets[msg.sender].push(_ticketId);\r\n    }\r\n\r\n    function getPurchasedTickets(address _user) public view returns (uint[] memory) {\r\n        return purchasedTickets[_user];\r\n    }\r\n}\r\n",
  "sourcePath": "C:\\Users\\Smart Lenovo\\TicketingSystem\\contracts\\Ticketing.sol",
  "compiler": {
    "name": "solc",
    "version": "0.8.0+commit.c7dfd78e.Emscripten.clang"
  },
  "schemaVersion": "3.4.16",
  "updatedAt": "2024-11-05T10:33:02.081Z",
  "networkType": "ethereum",
  "devdoc": {
    "kind": "dev",
    "methods": {},
    "version": 1
  },
  "userdoc": {
    "kind": "user",
    "methods": {},
    "version": 1
  }
}